:1015970020200020202D2D20202D2D2020202D2D16
:1015A700003A0001190AAA020C0AD502010B5A01D6
:1015B7001602AA020A0AAA011D062A02170AB60279
:0F15C700070AAB01260AAB02040AAB01230AABE9
:1014A700012900012A00012B000137000135000145
:1014B7003601012E00012800014B00014C00014DAF
:1014C70000012700014A00014500C1000332C4EAB8
:1014D70000033BD4C2000338C8D5000342C8F30059
:0D14E700033ECEC2000346B6C8000141001E
:1012D0001210DCE508FB3395E0FAE4FDFF1216D0AE
:1012E000E509FB3395E0FA7D02E4FF1216D0E5280C
:1012F000FB7A007D067F011216D0E50AFB3395E0EC
:10130000FA7D04E4FF1216D0E50BFB3395E0FAE416
:10131000FD7F01121774E50CFB3395E0FA7D027F27
:1013200001121774E50DFB3395E0FA7D047F01028D
:02133000177430
:10000E00E549B402127F647E001216F4052CE52C2D
:10001E0075F0068485F02CE549640360030200F553
:10002E007F64FE1216F47408252CF806D3E50864D6
:10003E008094E34003E4F508D3E5096480948C4092
:10004E0003750901E50964016023E5096403601D78
:10005E00E50964056017E50964076011E5096408A0
:10006E00600BE509640A6005E509B40C0BD3E50ADB
:10007E006480949F404D8048E50964046011E50951
:10008E006406600BE50964096005E509B40B0BD342
:10009E00E50A6480949E402B8026E509B40224E58F
:1000AE000875F00412043BAFF0EF700BD3E50A6451
:1000BE0080949D400E8009D3E50A6480949C400391
:1000CE00750A01D3E50B648094974003E4F50BD3D6
:1000DE00E50C648094BB4003E4F50CD3E50D64801D
:1000EE0094BB4003E4F50DE549640460030201F698
:1000FE007F64FE1216F47408252CF816C3E5086406
:10010E008094805003750863C3E509648094815020
:10011E000375090CE50964016023E5096403601D9C
:10012E00E50964056017E50964076011E5096408CF
:10013E00600BE509640A6005E509B40C17C3E50A0E
:10014E00648094815003750A1FD3E50A6480949FDE
:10015E004072806DE50964046011E5096406600B68
:10016E00E50964096005E509B40B17C3E50A648067
:10017E0094815003750A1ED3E50A6480949E404410
:10018E00803FE5096402703CE50875F00412043BFB
:10019E00AFF0EF7017C3E50A648094815003750ABF
:1001AE001DD3E50A6480949D401A8015C3E50A6448
:1001BE008094815003750A1CD3E50A6480949C4098
:1001CE0003750A01C3E50B648094805003750B1709
:1001DE00C3E50C648094805003750C3BC3E50D643D
:1001EE008094805003750D3BE52C7013E52FB40100
:1001FE000E7BFF7A157997E4FDFF121393800DE5C0
:10020E0008FB3395E0FAE4FDFF1216D0E52CB4019D
:10021E0014E52FB4010F7BFF7A1579977D02E4FF69
:10022E00121393800EE509FB3395E0FA7D02E4FF8D
:10023E001216D0E52CB40214E52FB4010F7BFF7A11
:10024E001579977D04E4FF121393800EE50AFB33B4
:10025E0095E0FA7D04E4FF1216D0E52CB40314E504
:10026E002FB4010F7BFF7A157997E4FD7F011213EE
:10027E0093800EE50BFB3395E0FAE4FD7F01121639
:10028E00D0E52CB40414E52FB4010F7BFF7A157959
:10029E00977D027F01121393800EE50CFB3395E0E0
:1002AE00FA7D027F011216D0E52CB40512E52FB4AB
:1002BE00010D7BFF7A1579977D047F01021393E57B
:0E02CE000DFB3395E0FA7D047F011216D0225D
:100A1900E549B4050F850A29850B2A850C2B850D17
:100A290037E4F52EE52E6003020AD3E536B40A034E
:100A3900E4F536E549B40A1E850A4B850B4C850C4D
:100A49004D850D2785290A852A0B852B0C85370DA0
:100A5900120D42E4F52DE549B406187F647E0012B3
:100A690016F4752C02050AC3E50A648094984003BC
:100A7900750A01E549B407187F647E001216F475FA
:100A89002C03050BC3E50B648094984003750B0197
:100A9900E549B408187F647E001216F4752C040524
:100AA9000CC3E50C648094BC4003750C01E549B4A2
:100AB90009187F647E001216F4752C05050DC3E52F
:100AC9000D648094BC4003750D01E52C7013E52F6E
:100AD900B4010E7BFF7A157997E4FDFF1213938019
:100AE9000DE508FB3395E0FAE4FDFF1216D0E52C7D
:100AF900B40114E52FB4010F7BFF7A1579977D02B4
:100B0900E4FF121393800EE509FB3395E0FA7D02A9
:100B1900E4FF1216D0E52CB40214E52FB4010F7BC3
:100B2900FF7A1579977D04E4FF121393800EE50A85
:100B3900FB3395E0FA7D04E4FF1216D0E52CB403EB
:100B490014E52FB4010F7BFF7A157997E4FD7F0136
:100B5900121393800EE50BFB3395E0FAE4FD7F0158
:100B69001216D0E52CB40414E52FB4010F7BFF7ADB
:100B79001579977D027F01121393800EE50CFB33E3
:100B890095E0FA7D027F011216D0E52CB40512E535
:100B99002FB4010D7BFF7A1579977D047F0102132C
:100BA90093E50DFB3395E0FA7D047F011216D022FF
:10103B00AA058F828E83EDC39403500EED240CFA18
:10104B00EF24FFF582EE34FFF583E58224D0FFE534
:10105B00833407FEC3EF94D0EE940750047F0180D6
:10106B00027F008F4EEA2401FFE433FE7C007D03F8
:10107B001204BE7D051204D0AC06AD07EA75F00272
:10108B00A47A002BFFEA35F0CF2DCF3CCF2582FD84
:10109B00EF3583FCE582AE837802CEC313CE13D833
:1010AB00F92DFFEC3EFE7C00EF254EFFEC3EFE7D66
:1010BB00071204D0AE04AF05EF2401FFE43EFE7C23
:1010CB00007D071204D0AE04AF05EF4E70027F0710
:0110DB0022F2
:101844007C007D091204BE7D05120525EF2420FFCE
:03185400E43EFE71
:01185700226E
:10154F00AB058F828E83EB64027025E582540370A6
:10155F000AFC7D641204D0ED4C700FAE83AF827C19
:10156F00017D901204D0ED4C70037F1D227F1C2251
:10157F00EB6404600DEB64066008EB64096003BB69
:08158F000B037F1E227F1F22C7
:08058C008E528F538D548B55E4
:10059400E4F562F563F564F565AB56AA57A95812FC
:1005A400048AAB56AA57A95890000112049C9000E3
:1005B40002E412049C900003E412049CC3E55394E7
:1005C400E4E5529407500302082BD3E55394EEE577
:1005D400529407400302082BE553AE527802C3330A
:1005E400CE33CED8F9FBAA06241AF58274F63AF56E
:1005F4008312057C8F5C8E5B8D5A8C59781812059A
:1006040069E48F5DAF5CAE5BAD5AAC5978101205EE
:1006140069E48F5EAF5CAE5BAD5AAC5978081205E5
:10062400698F5FE55CFFE55BFEE48E608F61F562D8
:10063400F563E554C3955D400CE554655D7061E573
:1006440055955E505BE55364E47004E552640770AD
:100654000302082B74162BF58274F63AF5831205FF
:100664007C8F5C8E5B8D5A8C597818120569E48FE7
:100674005DAF5CAE5BAD5AAC597810120569E48F7E
:100684005EAF5CAE5BAD5AAC5978081205698F5FFA
:10069400E55CFFE55BFE8E608F61E553241B8004FF
:1006A400E553241CAB56AA57A95812048AE554D31F
:1006B400955D405BAD5DAF53AE5212154FC3EF95E0
:1006C4005EFFE49400CF2401F563E43FF562E55D49
:1006D4002401F568E433F567C3E56895547480F83C
:1006E400656798501DAD68AF53AE5212154FEF2594
:1006F40063F563E43562F5620568E56870DA0567F9
:1007040080D6E5552563F563E43562F5628015E529
:1007140054655D600302082BC3E555955EF563E4FB
:100724009400F562C3E56294005005E4F562F56354
:10073400E4F564F565E55F60047F0D80027F0CAD30
:1007440007E4F567F568EDFFC3E5689F7480F86515
:100754006798400302082BAC6874017E00A8040863
:100764008005C333CE33CED8F9FFE5605EFEE56184
:100774005F4E60047F1E80027F1D8F667E00E565EC
:100784002FFFEE3564FEC3E5639FE5629E400302DE
:100794000815E55F605324FFFFE434FFFEC3E568FA
:1007A4009FEE6480F8E5676480985003EC803CE534
:1007B4005F24FFFFE434FFFEEFB56819EEB567155B
:1007C400AB56AA57A958900001E55F12049C90000B
:1007D4000374018027AB56AA57A958900001E56815
:1007E40012049C900003E48013E56804AB56AA57F6
:1007F400A95890000112049C900003E412049CC3C5
:10080400E563956504AB56AA57A958900002020403
:100814009CE5662565F565E43564F5640568E56879
:070824007002056702074A9C
:01082B0022AA
:1014FE0075560075570075584E12058CE54E24E44E
:10150E00FBE43407FAE4FD7F021216D0E5516008C1
:10151E007B007A00794280067BFF7A1579977D07EA
:10152E007F02121393E54FFB7A007D037F021216A2
:10153E00D0E55024FFFBE434FFFA7D057F0202164E
:01154E00D0CC
:100EC60012186B7FE87E0312182F12189D121858FD
:100ED6001218021210DC120D427F647E001216F404
:100EE6007B007A0079327D01E4FF1213937B007A4E
:100EF60000793B7D03E4FF1213937B007A00793877
:100F06007D05E4FF1213937BFF7A15799AE4FD7F42
:100F1600011213937B007A0079327D027F0212134D
:100F2600937B007A00793B7D047F021213937B004A
:100F36007A0079387D067F021213937B007A007956
:100F46003EE4FD7F031213937B007A0079467D0110
:100F56007F031213937BFF7A1579A87D027F031214
:100F660013937B007A0079387D067F021213931261
:100F7600186B1216341203BA8F41EFFB7A007D0309
:100F86007F031216D0120BB98F49AF08EF3395E0E5
:100F9600FEAB0AAD0912103B8F28AF08EF3395E080
:100FA600FEEF24D0FFEE3407FEAB0AAD091214FEA5
:100FB600E549B4011F7F647E001216F4C200E52DD8
:100FC6007007752D01F52C800BE52DB40106E4F5AF
:100FD6002D120D42E549B405127F647E001216F407
:100FE600C200E52D7005752D02F52CE549B40B03FD
:100FF600E4F545E54BB50A1CE54CB50B17E54DB5D3
:101006000C12E527B50D0DE4F54A754501054AE5CF
:101016004AB40AF6E52D1460101460132402600326
:10102600020F681212D0020F6812000E020F681229
:051036000A19020F6819
:03000B000211F5EA
:0911F500C0E0C0D075D000C007B5
:1011FE00758A18758CFC0522E52270020521C394B0
:10120E00F4E52194014012752100752200E52F703E
:10121E00047F0180027F008F2F0524E524700205D4
:10122E0023C39401E5239400400DE545B4010875F0
:10123E002300752400B295E545B401080526E52680
:10124E0070020525C3E52694B8E525940B40097573
:08125E0025007526007545000E
:07126600D007D0D0D0E03228
:0914F40007081905010C3B37370C
:05189D00C2B0C2B3223D
:0513F2002DFDEE3CFCA6
:0613F7008C4E8D4FAB0788
:1013FD00D2B0E4FD74017E00A805088005C333CE8C
:10140D0033CED8F9FFEBF582EF558224FF92B1D29E
:10141D00B3C2B30DBD08DDE4FD74017E00A805085F
:10142D008005C333CE33CED8F9FFE54E5EFEE54FD2
:10143D005F4E24FF92B1D2B3C2B30DBD08DBC2B073
:01144D00227C
:02144E008F4EBF
:10145000E4F54F7F08121716434E01D2B0E4FD7435
:10146000017E00A805088005C333CE33CED8F9FF2E
:10147000E54EFBEF5B24FF92B1C2B3D2B30DBD08C2
:10148000DEE4FDD2B3C2B330B10D7401A80508800B
:1014900002C333D8FC424F0DBD08E8C2B0C2B17FD1
:0614A0000C121716AF4FFD
:0114A6002223
:100D42007F08121716E4FDFC7F8E1213F7E5087573
:100D5200F00A12043BFF3395E0FEEFC4F8540FC8CB
:100D620068FFEEC454F048FEE50875F00A12043B31
:100D7200ADF0ED3395E0FCEF7F8C1213F2E50975CF
:100D8200F00A12043BFF3395E0FEEFC4F8540FC89B
:100D920068FFEEC454F048FEE50975F00A12043B00
:100DA200ADF0ED3395E0FCEF7F881213F2E50A75A2
:100DB200F00A12043BFF3395E0FEEFC4F8540FC86B
:100DC20068FFEEC454F048FEE50A75F00A12043BCF
:100DD200ADF0ED3395E0FCEF2DFDEE3CFC7F86128D
:100DE20013F7E50B75F00A12043BFF3395E0FEEFB3
:100DF200C4F8540FC868FFEEC454F048FEE50B7502
:100E0200F00A12043BADF0ED3395E0FCEF2DFDEE60
:100E12003CFC7F841213F7E50C75F00A12043BFFC9
:100E22003395E0FEEFC4F8540FC868FFEEC454F0E7
:100E320048FEE50C75F00A12043BADF0ED3395E087
:100E4200FCEF2DFDEE3CFC7F821213F7E50D75F0F1
:100E52000A12043BFF3395E0FEEFC4F8540FC86852
:100E6200FFEEC454F048FEE50D75F00A12043BADE6
:100E7200F0ED3395E0FCEF2DFDEE3CFC7F8012138C
:100E8200F7E50E75F00A12043BFF3395E0FEEFC45E
:100E9200F8540FC868FFEEC454F048FEE50E75F032
:100EA2000A12043BADF0ED3395E0FCEF2DFDEE3C74
:100EB200FC7F8A1213F77D807C007F8E1213F77FEE
:040EC2000C021716F1
:1010DC007F8C12144EEFC4540F75F00AA4FEEF541B
:1010EC000F2EF5087F8812144EEFC4540F75F00ABA
:1010FC00A4FEEF540F2EF5097F8612144EEFC45444
:10110C000F75F00AA4FEEF540F2EF50A7F8412140B
:10111C004EEFC4540F75F00AA4FEEF540F2EF50BCE
:10112C007F8212144EEFC4540F75F00AA4FEEF54D4
:10113C000F2EF50C7F8012144EEFC4540F75F00A6D
:10114C00A4FEEF540F2EF50D7F8A12144EEFC454EB
:0C115C000F75F00AA4FEEF540F2EF50EE4
:011168002264
:101802005389F0438901758A18758CFCC28DD28C7C
:07181200D2A9D2AFC2B92236
:101688008F0F8C108D1112188E7FA012165F1218F2
:1016980078AF0F12165F121878AF1112165F121872
:0416A80078020003C1
:0215D6008F1272
:1015D80012188E7FA012165F121878AF1212165FBB
:1015E80012187812188E7FA112165F121878121727
:0D15F800568F137F01121884120003AF13E9
:0116050022C2
:09188E00D2A0D2A1C2A0C2A12285
:07000300C2A0D2A1D2A0228D
:02165F00AD07D5
:10166100E4FB74807E00A803088006CEA2E713CEB7
:1016710013D8F8FFEDF582EF558224FF92A0D2A195
:06168100C2A10BBB08DC56
:011687002240
:10175600E4FFD2A0FED2A130A00D7480A8060880B6
:0D17660002C313D8FC4207C2A10EBE08E862
:011773002253
:0A188400EF24FF92A0D2A1C2A1221E
:0B187800D2A0D2A1A2A0E433FFC2A1C5
:011883002242
:0C160600C2A5C2A78980D2A77F057E0084
:10161200D3EF9400EE940040187DC7D3ED6480941C
:101622008040077C01DCFE1D80F1EF1F70E21E800E
:01163200DFD8
:011633002294
:1016AC00E4FBC2A6D2A5D2A77F01FE121612E580DA
:1016BC0030E70C0BEBD3946440F4C2A77F0022C23A
:0316CC00A77F01F4
:0116CF0022F8
:02171600A90721
:10171800E4FA1216ACEF700E7F01FE1216120AEAF6
:0D172800D3946440ED22C2A6121606C2A79B
:011735002291
:02173600A90701
:10173800E4FA1216ACEF700E7F01FE1216120AEAD6
:0D174800D3946440ED22D2A6121606C2A76B
:011755002271
:0A082C008E648F658B668A67896809
:10083600E4F56BF56CF56DF56EF571F5728564731F
:10084600856574C3E564648094805016756D007583
:100856006E01C3E49565F565E49564F564F5738505
:1008660065740572E57270020571AE73AF747C0033
:100876007D0A1205258E738F74E574457370E3D374
:10088600E56A9400E56964809480404AE572956A59
:10089600E5696480F8E571648098503AE4F56BF593
:1008A6006CC3E56A9572FFE5699571FEC3E56C9FB9
:1008B600EE6480F8E56B648098501BAB66AA67A966
:1008C60068856C82856B83743012049C056CE56CBC
:1008D60070CF056B80CBE56545647042D3E56A94BD
:1008E60000E569648094805017AB66AA67A968051D
:1008F6006CE56CAE6B7002056B14F5828E83801707
:10090600E56A24FFF56CE56934FFF56BAB66AA670B
:10091600A968856C82F583743012049C80438564D3
:1009260073856574AE73AF747C007D0A120525ED80
:100936002430FFAB66AA67A968056CE56CAC6B70E2
:1009460002056B14F5828C83EF12049CAE73AF74B0
:100956007C007D0A1205258E738F74E574457370CD
:10096600C3E56E456D601AAB66AA67A968056CE5B6
:100976006CAE6B7002056B14F5828E83742D1204B7
:100986009CD3E56A9400E56964809480401DD3E5B4
:100996006A9572E5716480F8E569648098400CE5B3
:1009A6006A9572FFE5699571FE80047E007F00E519
:1009B6006C24FFF570E56B34FFF56FC3EF9570E5BA
:0A09C6006F6480F8EE6480985039E9
:1009D000AB66AA67A9688F828E8312045DF5758560
:1009E0007082856F8312045D8F828E8312049C85D2
:1009F0007082856F83E57512049C0FBF00010EE5C0
:070A000070157070BC156F4A
:100A070080B8AB66AA67A968856C82856B83E402A8
:020A1700049C3D
:10126D008E538F548B558A568957C3E5536480949A
:10127D00805005E4F553F554D3E5549463E5536478
:10128D008094804006755300755463AE53AF547C03
:10129D00007D0A120525EF2430AB55AA56A9571229
:1012AD00048AAE53AF547C007D0A120525ED24301F
:1012BD00AB55AA56A95790000112049C900002E468
:0312CD0002049C7C
:10185800D2B5D2A47F301217167F0C1217167F014B
:031868000217164E
:081393008D648B658A66896791
:10139B00E4F569EF7008E5642480F5688021BF01EE
:1013AB0008E5642490F5688016BF0208E56424887C
:1013BB00F568800BEF6403702DE5642498F568AF36
:1013CB0068121716AB65AA66A967856982758300D3
:1013DB0012045DFF6010E564C394105009121736B8
:0613EB000569056480DEC7
:0113F10022D9
:0816D0008F528D53AF03AE02EF
:1016D8007B007A007954756900756A0212082C7BC0
:0C16E800007A007954AD53AF5202139306
:081774008F4E8D4FAF03AE0252
:10177C007B007A00795012126D7B007A007950ADA3
:06178C004FAF4E02139363
:100BB900E4F54E7590FFC2932097137F14FE121827
:100BC9002F3097FD7F147E0012182F754E01209645
:100BD900147F147E0012182F3096FD7F147E0012A8
:100BE900182F754E052095147F147E0012182F308A
:100BF90095FD7F147E0012182F754E092094147FDD
:100C0900147E0012182F3094FD7F147E0012182FC5
:100C1900754E0D7590FFC2922097147F147E0012B5
:100C2900182F3097FD7F147E0012182F754E022061
:100C390096147F147E0012182F3096FD7F147E00C3
:100C490012182F754E062095147F147E0012182F46
:100C59003095FD7F147E0012182F754E0A209414CA
:100C69007F147E0012182F3094FD7F147E00121815
:100C79002F754E0E7590FFC2912097147F147E0038
:100C890012182F3097FD7F147E0012182F754E030E
:100C99002096147F147E0012182F3096FD7F147E43
:100CA9000012182F754E072095147F147E00121814
:100CB9002F3095FD7F147E0012182F754E0B20944E
:100CC900147F147E0012182F3094FD7F147E0012B9
:100CD900182F754E0F7590FFC2902097147F147EC0
:100CE9000012182F3097FD7F147E0012182F754EB1
:100CF900042096147F147E0012182F3096FD7F145D
:100D09007E0012182F754E082095147F147E00124C
:100D1900182F3095FD7F147E0012182F754E0C2068
:100D290094147F147E0012182F3094FD7F147E00D6
:080D390012182F754E10AF4E89
:010D4100228F
:0D186B001217927FCC1217E97F440217E993
:101634001217927FCC1217E97FBE1217E91217B066
:101644008F4E1217B0EFFEE54EFFFDAC06EC120311
:0B16540081E4FBFA798078410202DF9C
:10179200C2AFD2B7C2B77FF7DFFED2B77F20DFFE7C
:0D17A200A2B7E433FE7FF7DFFED2AFAF0643
:0117AF002217
:10181900C2AFC2B77E04DEFEEF24FF92B77E18DEA8
:05182900FED2B7D2AFB2
:01182E002297
:1017CD00C2AFC2B77F02DFFED2B77F02DFFEA2B784
:0B17DD00E433FE7F18DFFED2AFAF0642
:0117E80022DE
:0217E900AD074A
:1017EB00E4FC7401A804088002C333D8FC5DFF122B
:0617FB0018190CBC08ECFB
:0118010022C4
:1017B000E4FDFC1217CDEF600D7401A8040880024F
:0C17C000C333D8FC42050CBC08E9AF059F
:0117CC0022FA
:10133200E4F51420B1137F14FE12182F30B1FD7F93
:10134200147E0012182F75140120B0147F147E0031
:1013520012182F30B0FD7F147E0012182F75140260
:1013620020B2147F147E0012182F30B2FD7F147E3B
:101372000012182F75140320B3147F147E00121864
:101382002F30B3FD7F147E0012182F751404AF1492
:011392002238
:10182F00EF1FAC0670011E4C600A7D027CEFDCFEE0
:04183F00DDFC80EC60
:011843002282
:05189700007FF7DFFEF9
:01189C002229
:0416F400AD07AC068C
:1016F800E4FBFAED25E0FFEC33FEC3EB9FEA9E50D6
:0D1708000CB2951218970BBB00010A80E689
:0117150022B1
:1002DC00020430EC5D046005E85904700302042646
:1002EC001203F1580460F6EC4860F2EC7004FDFE69
:1002FC00FF22C860DB2481C85009C39860025006F5
:10030C0002042D9850CAF582E9294B4A7005AB823C
:10031C0002041C75F0007C1A7880C3EF9BEE9AEDFA
:10032C0099400DC3EF9BFFEE9AFEED99FDE842F06C
:10033C00DC23ACF0D0E0FFD0E0FED0E0FDAB8220BF
:10034C00E7101BEB60BAEC2CFCEF33FFEE33FEED49
:10035C0033FD020408E803F830E705C0F075F0003F
:10036C00EF2FFFEE33FEED33FD40B830E7C280AA2D
:10037C0075F020800E75F010800575F0087D007EFC
:10038C00007F003392D530D50312055BEC3340105F
:10039C00EF33FFEE33FEED33FDEC33FCD5F0ED2205
:0E03AC00E5F0247EA2D513CC92E7CDCEFF2241
:1003BA00EDD2E7CD33EC3392D524814006E4FFFE3B
:1003CA00FDFC22FCE4CFCECDCC24E0501174FF809A
:1003DA00EDC3CC13CCCD13CDCE13CECF13CF047037
:0703EA00F030D5DE02055BD7
:1003F100E9D2E7C933E833F892D5EDD2E7CD33EC52
:0704010033FC5002B2D522CA
:10040800EC30E7100FBF000C0EBE00080DBD000455
:100418000BEB6014A2D5EB13FCED92E7FD2274FF01
:10042800FCFDFEFF22E480F8A2D574FF13FC7D805A
:03043800E480EF6E
:0300000002116981
:0C116900787FE4F6D8FD7581750211B0A6
:10043B00C2D530F707B2D563F0FF05F030E70CB249
:10044B00D5F4048463F0FF05F080018430D502F409
:02045B00042279
:10045D00BB010CE58229F582E5833AF583E0225054
:10046D0006E92582F8E622BBFE06E92582F8E2229E
:0D047D00E58229F582E5833AF583E49322B8
:10048A00BB010689828A83F0225002F722BBFE0151
:02049A00F3224B
:10049C00F8BB010DE58229F582E5833AF583E8F096
:1004AC00225006E92582C8F622BBFE05E92582C842
:0204BC00F2222A
:1004BE00EF8DF0A4A8F0CF8CF0A428CE8DF0A42E52
:0204CE00FE220C
:1004D000BC000BBE0029EF8DF084FFADF022E4CC10
:1004E000F875F008EF2FFFEE33FEEC33FCEE9DECD9
:1004F000984005FCEE9DFE0FD5F0E9E4CEFD22ED1F
:10050000F8F5F0EE8420D21CFEADF075F008EF2F68
:10051000FFED33FD4007985006D5F0F222C398FD59
:050520000FD5F0EA22F6
:10052500C2D5EC30E709B2D5E4C39DFDE49CFCEEF1
:1005350030E715B2D5E4C39FFFE49EFE1204D0C395
:10054500E49DFDE49CFC80031204D030D507C3E490
:060555009FFFE49EFE2260
:0E055B00C3E49FFFE49EFEE49DFDE49CFC22B1
:10056900E8600FECC313FCED13FDEE13FEEF13FF70
:03057900D8F12294
:10057C00E493FC740193FD740293FE740393FF22C5
:10117500020EC6E493A3F8E493A34003F68001F2BC
:1011850008DFF48029E493A3F85407240CC8C3337B
:10119500C4540F4420C8834004F456800146F6DF4A
:1011A500E4800B01020408102040809014A7E47E1F
:1011B500019360BCA3FF543F30E509541FFEE4933F
:1011C500A360010ECF54C025E060A840B8E493A306
:1011D500FAE493A3F8E493A3C8C582C8CAC583CA31
:1011E500F0A3C8C582C8CAC583CADFE9DEE780BEE9
:0114FD0000EE
:00000001FF
