:10173A0020200020202D2D20202D2D2020202D2D71
:10174A00003A0001190AAA020C0AD502010B5A0131
:10175A001602AA020A0AAA011D062A02110AB602DA
:0F176A00070AAB011A0AAB02040AAB01170AAB5C
:10141800012900012A00012B0001370001350001D4
:101428003601012E00012800013800015100015346
:1014380000014F00014E00023C0001015000015222
:1014480000015400012700014D00014800C10003BC
:1014580032C4EA00033ED4C2000339C8D5000345AC
:10146800C8F3000341CEC2000349B6C800014400D6
:1014E5001212FFE508FB3395E0FAE4FDFF121873CD
:1014F500E509FB3395E0FA7D02E4FF121873E52850
:10150500FB7A007D067F01121873E50AFB3395E02F
:10151500FA7D04E4FF121873E50BFB3395E0FAE45A
:10152500FD7F01121958E50CFB3395E0FA7D027F2A
:1015350001121958E50DFB3395E0FA7D047F010290
:02154500195833
:10000E00E54CB402127F647E00121897052CE52C85
:10001E0075F0068485F02CE54C640360030200F550
:10002E007F64FE1218977408252CF806D3E5086431
:10003E008094E34003E4F508D3E5096480948C4092
:10004E0003750901E50964016023E5096403601D78
:10005E00E50964056017E50964076011E5096408A0
:10006E00600BE509640A6005E509B40C0BD3E50ADB
:10007E006480949F404D8048E50964046011E50951
:10008E006406600BE50964096005E509B40B0BD342
:10009E00E50A6480949E402B8026E509B40224E58F
:1000AE000875F00412043BAFF0EF700BD3E50A6451
:1000BE0080949D400E8009D3E50A6480949C400391
:1000CE00750A01D3E50B648094974003E4F50BD3D6
:1000DE00E50C648094BB4003E4F50CD3E50D64801D
:1000EE0094BB4003E4F50DE54C640460030201F695
:1000FE007F64FE1218977408252CF816C3E5086461
:10010E008094805003750863C3E509648094815020
:10011E000375090CE50964016023E5096403601D9C
:10012E00E50964056017E50964076011E5096408CF
:10013E00600BE509640A6005E509B40C17C3E50A0E
:10014E00648094815003750A1FD3E50A6480949FDE
:10015E004072806DE50964046011E5096406600B68
:10016E00E50964096005E509B40B17C3E50A648067
:10017E0094815003750A1ED3E50A6480949E404410
:10018E00803FE5096402703CE50875F00412043BFB
:10019E00AFF0EF7017C3E50A648094815003750ABF
:1001AE001DD3E50A6480949D401A8015C3E50A6448
:1001BE008094815003750A1CD3E50A6480949C4098
:1001CE0003750A01C3E50B648094805003750B1709
:1001DE00C3E50C648094805003750C3BC3E50D643D
:1001EE008094805003750D3BE52C7013E52FB40100
:1001FE000E7BFF7A17793AE4FDFF121547800DE565
:10020E0008FB3395E0FAE4FDFF121873E52CB401F8
:10021E0014E52FB4010F7BFF7A17793A7D02E4FFC4
:10022E00121547800EE509FB3395E0FA7D02E4FFD7
:10023E00121873E52CB40214E52FB4010F7BFF7A6C
:10024E0017793A7D04E4FF121547800EE50AFB3359
:10025E0095E0FA7D04E4FF121873E52CB40314E55F
:10026E002FB4010F7BFF7A17793AE4FD7F01121547
:10027E0047800EE50BFB3395E0FAE4FD7F01121883
:10028E0073E52CB40414E52FB4010F7BFF7A1779B4
:10029E003A7D027F01121547800EE50CFB3395E087
:1002AE00FA7D027F01121873E52CB40512E52FB406
:1002BE00010D7BFF7A17793A7D047F01021547E520
:0E02CE000DFB3395E0FA7D047F0112187322B8
:100BB600E54CB4050F850A29850B2A850C2B850D76
:100BC60037E4F52EE52E6003020C70E536B40A0311
:100BD600E4F536E54CB40A1E850A50850B52850CA1
:100BE60054850D2785290A852A0B852B0C85370DFB
:100BF600120EDFE4F52DE54CB406187F647E001274
:100C06001897752C02050AC3E50A64809498400378
:100C1600750A01E54CB407187F647E0012189775B3
:100C26002C03050BC3E50B648094984003750B01F8
:100C3600E54CB408187F647E00121897752C0405DD
:100C46000CC3E50C648094BC4003750C01E54CB400
:100C560009187F647E00121897752C05050DC3E5EB
:100C66000D648094BC4003750D01E52C7013E52FCF
:100C7600B4010E7BFF7A17793AE4FDFF121547801F
:100C86000DE508FB3395E0FAE4FDFF121873E52C39
:100C9600B40114E52FB4010F7BFF7A17793A7D0270
:100CA600E4FF121547800EE509FB3395E0FA7D0255
:100CB600E4FF121873E52CB40214E52FB4010F7B80
:100CC600FF7A17793A7D04E4FF121547800EE50A8C
:100CD600FB3395E0FA7D04E4FF121873E52CB403A8
:100CE60014E52FB4010F7BFF7A17793AE4FD7F01F3
:100CF600121547800EE50BFB3395E0FAE4FD7F0104
:100D0600121873E52CB40414E52FB4010F7BFF7A97
:100D160017793A7D027F01121547800EE50CFB33E9
:100D260095E0FA7D027F01121873E52CB40512E5F1
:100D36002FB4010D7BFF7A17793A7D047F010215E6
:100D460047E50DFB3395E0FA7D047F011218732207
:1011C500AA058F828E83EDC39403500EED240CFA8D
:1011D500EF24FFF582EE34FFF583E58224D0FFE5A9
:1011E500833407FEC3EF94D0EE940750047F01804B
:1011F500027F008F55EA2401FFE433FE7C007D0366
:101205001204BE7D051204D0AC06AD07EA75F002E6
:10121500A47A002BFFEA35F0CF2DCF3CCF2582FDF8
:10122500EF3583FCE582AE837802CEC313CE13D8A7
:10123500F92DFFEC3EFE7C00EF2555FFEC3EFE7DD3
:10124500071204D0AE04AF05EF2401FFE43EFE7C97
:10125500007D071204D0AE04AF05EF4E70027F0784
:011265002266
:101A28007C007D091204BE7D05120525EF2420FFE8
:031A3800E43EFE8B
:011A3B002288
:1016F200AB058F828E83EB64027025E58254037002
:101702000AFC7D641204D0ED4C700FAE83AF827C74
:10171200017D901204D0ED4C70037F1D227F1C22AC
:10172200EB6404600DEB64066008EB64096003BBC4
:081732000B037F1E227F1F2222
:08058C008E598F5A8D5B8B5CC8
:10059400E4F569F56AF56BF56CAB5DAA5EA95F12CB
:1005A400048AAB5DAA5EA95F90000112049C9000CE
:1005B40002E412049C900003E412049CC3E55A94E0
:1005C400E4E55994075003020825D3E55A94EEE56F
:1005D4005994074003020825E55AAE597802C333FB
:1005E400CE33CED8F9FBAA0624BDF58274F73AF5CA
:1005F4008312057C8F638E628D618C60781812057E
:1006040069E48F64AF63AE62AD61AC6078101205CB
:1006140069E48F65AF63AE62AD61AC6078081205C2
:10062400698F66E563FFE562FEE48E678F68F569AE
:10063400F56AE55BC39564400CE55B65647061E550
:100644005C9565505BE55A64E47004E55964077091
:100654000302082574B92BF58274F73AF583120561
:100664007C8F638E628D618C607818120569E48FCB
:1006740064AF63AE62AD61AC607810120569E48F5B
:1006840065AF63AE62AD61AC6078081205698F66D0
:10069400E563FFE562FE8E678F68E55A241B8004DC
:1006A400E55A241CAB5DAA5EA95F12048AE55BD3FC
:1006B40095644055AD64AF5AAE591216F2C3EF9526
:1006C40065F56AE49400F569E5642401F56FE433A3
:1006D400F56EC3E56F955B7480F8656E98501DAD3B
:1006E4006FAF5AAE591216F2EF256AF56AE435690E
:1006F400F569056FE56F70DA056E80D6E55C256AED
:10070400F56AE43569F5698015E55B6564600302A3
:100714000825C3E55C9565F56AE49400F569C3E5CD
:100724006994005005E4F569F56AE4F56BF56CE548
:100734006660047F0D80027F0CAD07E4F56EF56FF3
:10074400EDFFC3E56F9F7480F8656E98400302085F
:1007540025AC6F74017E00A804088005C333CE3332
:10076400CED8F9FFE5675EFEE5685F4E60047F1E44
:1007740080027F1D8F6D7E00E56C2FFFEE356BFED2
:10078400C3E56A9FE5699E400302080FE56660536E
:1007940024FFFFE434FFFEC3E56F9FEE6480F8E5B9
:1007A4006E6480985003EC803CE56624FFFFE434DB
:1007B400FFFEEFB56F19EEB56E15AB5DAA5EA95FCE
:1007C400900001E56612049C90000374018027AB3D
:1007D4005DAA5EA95F900001E56F12049C9000037E
:1007E400E48013E56F04AB5DAA5EA95F900001127B
:1007F400049C900003E412049CC3E56A956C04AB6A
:100804005DAA5EA95F90000202049CE56D256CF56B
:100814006CE4356BF56B056FE56F7002056E0207CE
:01082400448F
:0108250022B0
:10165B00755D00755E00755F5512058CE55524E4CC
:10166B00FBE43407FAE4FD7F02121873E5586008B7
:10167B007B007A00794580067BFF7A17793A7D07E4
:10168B007F02121547E556FB7A007D037F02121885
:0D169B0073E557FB7A007D057F020218738E
:10106300E54C640C60030211C4F54C7F0A1216A808
:101073007F0312191A7F0B1218B97FE87E03121A25
:1010830013850B51850C53850D4F7F0A1216A8E566
:1010930051C3940A5018AF51121A627FF47E0112A1
:1010A3001A137F0C1218B97FF47E01121A13E5513B
:1010B300C3940A403BE55175F00A84FF121A627F1C
:1010C300F47E01121A137F0A1218B97FF47E0112FB
:1010D3001A13E55175F00A84AFF0121A627FF47E99
:1010E30001121A137F0C1218B97FF47E01121A131E
:1010F3007F0A1216A8E553C3940A5018AF53121A65
:10110300627FF47E01121A137F0D1218B97FF47EE9
:1011130001121A13E553C3940A403BE55375F00AD1
:1011230084FF121A627FF47E01121A137F0A1218C7
:10113300B97FF47E01121A13E55375F00A84AFF0F8
:10114300121A627FF47E01121A137F0D1218B97FEF
:10115300F47E01121A137F0A1216A8E54FC3940AEC
:101163005018AF4F121A627FF47E01121A137F0ECA
:101173001218B97FF47E01121A137F0A1216A8E51A
:101183004FC3940A403BE54F75F00A84FF121A627D
:101193007FF47E01121A137F0A1218B97FF47E01BD
:1011A300121A13E54F75F00A84AFF0121A627FF436
:1011B3007E01121A137F0E1218B97FF47E01121AE0
:0211C3001322F5
:100A1300121A737FE87E03121A13121AA5121A3CD4
:100A23001219E61212FF120EDF7F647E001218976E
:100A33007B007A0079327D01E4FF1215477B007A4F
:100A430000793E7D03E4FF1215477B007A00793974
:100A53007D05E4FF1215477BFF7A17793DE4FD7F9F
:100A6300011215477B007A0079327D027F0212154D
:100A7300477B007A00793E7D047F021215477B0095
:100A83007A0079397D067F021215477B007A007957
:100A930041E4FD7F031215477B007A0079497D010C
:100AA3007F031215477BFF7A17794B7D027F031271
:100AB3001547C2B27B007A0079397D067F02121591
:100AC30047121A731217D71203BA8F44EFFB7A0037
:100AD3007D037F03121873120D568F4CAF08EF334B
:100AE30095E0FEAB0AAD091211C58F28AF08EF33AD
:100AF30095E0FEEF24D0FFEE3407FEAB0AAD0912FA
:100B0300165B30B21EE538701A753801C2B2E5388B
:100B1300B40110754C0C7BFF7A17794B7D067F036C
:100B2300121547E54CB40D03E4F538121063E54C98
:100B3300B4011F7F647E00121897C200E52D700771
:100B4300752D01F52C800BE52DB40106E4F52D126E
:100B53000EDFE54CB405127F647E00121897C200C5
:100B6300E52D7005752D02F52CE54CB40B03E4F56A
:100B730048E550B50A1CE552B50B17E554B50C1200
:100B8300E527B50D0DE4F54D754801054DE54DB46B
:100B93000AF6E52D14601014601324026003020AA0
:100BA300B71214E5020AB712000E020AB7120BB607
:030BB300020AB77C
:03000B0002126678
:09126600C0E0C0D075D000C00743
:10126F00758A18758CFC0522E52270020521C3943E
:10127F00F4E52194014012752100752200E52F70CD
:10128F00047F0180027F008F2F0524E52470020563
:10129F0023C39401E5239400400DE548B40108757C
:1012AF002300752400B295E548B401080526E5260C
:1012BF0070020525C3E52694B8E525940B40097502
:1012CF002500752600754800E54EB40108053DE57B
:1012DF003D7002053CC3E53D94E8E53C94034009AD
:0912EF00753C00753D00754E00D0
:0712F800D007D0D0D0E03296
:0914780007081905010C3B373788
:051AA500C2B0C2B32233
:0515A6002DFDEE3CFCF0
:0615AB008C558D56AB07C4
:1015B100D2B0E4FD74017E00A805088005C333CED6
:1015C10033CED8F9FFEBF582EF558224FF92B1D2E9
:1015D100B3C2B30DBD08DDE4FD74017E00A80508AA
:1015E1008005C333CE33CED8F9FFE5555EFEE5560F
:1015F1005F4E24FF92B1D2B3C2B30DBD08DBC2B0BE
:0116010022C6
:021602008F5502
:10160400E4F5567F081218DA435501D2B0E4FD74AC
:10161400017E00A805088005C333CE33CED8F9FF78
:10162400E555FBEF5B24FF92B1C2B3D2B30DBD0805
:10163400DEE4FDD2B3C2B330B10D7401A805088055
:1016440002C333D8FC42560DBD08E8C2B0C2B17F14
:061654000C1218DAAF567B
:01165A00226D
:100EDF007F081218DAE4FDFC7F8E1215ABE508755A
:100EEF00F00A12043BFF3395E0FEEFC4F8540FC82D
:100EFF0068FFEEC454F048FEE50875F00A12043B93
:100F0F00ADF0ED3395E0FCEF7F8C1215A6E509757A
:100F1F00F00A12043BFF3395E0FEEFC4F8540FC8FC
:100F2F0068FFEEC454F048FEE50975F00A12043B61
:100F3F00ADF0ED3395E0FCEF7F881215A6E50A754D
:100F4F00F00A12043BFF3395E0FEEFC4F8540FC8CC
:100F5F0068FFEEC454F048FEE50A75F00A12043B30
:100F6F00ADF0ED3395E0FCEF2DFDEE3CFC7F8612EE
:100F7F0015ABE50B75F00A12043BFF3395E0FEEF5E
:100F8F00C4F8540FC868FFEEC454F048FEE50B7563
:100F9F00F00A12043BADF0ED3395E0FCEF2DFDEEC2
:100FAF003CFC7F841215ABE50C75F00A12043BFF75
:100FBF003395E0FEEFC4F8540FC868FFEEC454F049
:100FCF0048FEE50C75F00A12043BADF0ED3395E0E9
:100FDF00FCEF2DFDEE3CFC7F821215ABE50D75F09D
:100FEF000A12043BFF3395E0FEEFC4F8540FC868B4
:100FFF00FFEEC454F048FEE50D75F00A12043BAD48
:10100F00F0ED3395E0FCEF2DFDEE3CFC7F801215EB
:10101F00ABE50E75F00A12043BFF3395E0FEEFC40B
:10102F00F8540FC868FFEEC454F048FEE50E75F093
:10103F000A12043BADF0ED3395E0FCEF2DFDEE3CD5
:10104F00FC7F8A1215AB7D807C007F8E1215AB7FE3
:04105F000C0218DA8D
:1012FF007F8C121602EFC4540F75F00AA4FEEF5440
:10130F000F2EF5087F88121602EFC4540F75F00ADE
:10131F00A4FEEF540F2EF5097F86121602EFC45468
:10132F000F75F00AA4FEEF540F2EF50A7F841216E4
:10133F0002EFC4540F75F00AA4FEEF540F2EF50BF5
:10134F007F82121602EFC4540F75F00AA4FEEF54F9
:10135F000F2EF50C7F80121602EFC4540F75F00A92
:10136F00A4FEEF540F2EF50D7F8A121602EFC45410
:0C137F000F75F00AA4FEEF540F2EF50EBF
:01138B00223F
:1019E6005389F0438901758A18758CFCC28DD28C97
:0719F600D2A9D2AFC2B92251
:10182B008F0F8C108D11121A967FA0121802121A9C
:10183B0080AF0F121802121A80AF11121802121A6F
:04184B008002000314
:021779008F12CD
:10177B00121A967FA0121802121A80AF12121802B8
:10178B00121A80121A967FA1121802121A801219BD
:0D179B003A8F137F01121A8C120003AF1356
:0117A800221E
:091A9600D2A0D2A1C2A0C2A1227B
:07000300C2A0D2A1D2A0228D
:02180200AD0730
:10180400E4FB74807E00A803088006CEA2E713CE12
:1018140013D8F8FFEDF582EF558224FF92A0D2A1F0
:06182400C2A10BBB08DCB1
:01182A00229B
:10193A00E4FFD2A0FED2A130A00D7480A8060880D0
:0D194A0002C313D8FC4207C2A10EBE08E87C
:01195700226D
:0A1A8C00EF24FF92A0D2A1C2A12214
:0B1A8000D2A0D2A1A2A0E433FFC2A1BB
:011A8B002238
:0C17A900C2A5C2A78980D2A77F057E00E0
:1017B500D3EF9400EE940040187DC7D3ED64809478
:1017C5008040077C01DCFE1D80F1EF1F70E21E806A
:0117D500DF34
:0117D60022F0
:10184F00E4FBC2A6D2A5D2A77F01FE1217B5E58091
:10185F0030E70C0BEBD3946440F4C2A77F0022C295
:03186F00A77F014F
:011872002253
:0218DA00A9075C
:1018DC00E4FA12184FEF700E7F01FE1217B50AEAE8
:0D18EC00D3946440ED22C2A61217A9C2A732
:0118F90022CC
:0218FA00A9073C
:1018FC00E4FA12184FEF700E7F01FE1217B50AEAC8
:0D190C00D3946440ED22D2A61217A9C2A701
:0119190022AB
:0A0826008E6B8F6C8B6D8A6E896FEC
:10083000E4F572F573F574F575F578F579856B7AED
:10084000856C7BC3E56B648094805016757400756D
:100850007501C3E4956CF56CE4956BF56BF57A85E1
:100860006C7B0579E57970020578AE7AAF7B7C0008
:100870007D0A1205258E7A8F7BE57B457A70E3D35E
:10088000E5719400E57064809480404AE579957143
:10089000E5706480F8E578648098503AE4F572F584
:1008A00073C3E5719579FFE5709578FEC3E5739F95
:1008B000EE6480F8E572648098501BAB6DAA6EA957
:1008C0006F857382857283743012049C0573E5739F
:1008D00070CF057280CBE56C456B7042D3E57194A7
:1008E00000E570648094805017AB6DAA6EA96F0507
:1008F00073E573AE727002057214F5828E838017F1
:10090000E57124FFF573E57034FFF572AB6DAA6EE7
:10091000A96F857382F583743012049C8043856BC4
:100920007A856C7BAE7AAF7B7C007D0A120525ED63
:100930002430FFAB6DAA6EA96F0573E573AC7270BE
:1009400002057214F5828C83EF12049CAE7AAF7BA1
:100950007C007D0A1205258E7A8F7BE57B457A70B7
:10096000C3E5754574601AAB6DAA6EA96F0573E592
:1009700073AE727002057214F5828E83742D1204A8
:100980009CD3E5719400E57064809480401DD3E5AC
:10099000719579E5786480F8E570648098400CE59D
:1009A000719579FFE5709578FE80047E007F00E503
:1009B0007324FFF577E57234FFF576C3EF9577E59D
:0A09C000766480F8EE6480985039E8
:1009CA00AB6DAA6EA96F8F828E8312045DF57C854A
:1009DA00778285768312045D8F828E8312049C85CA
:1009EA007782857683E57C12049C0FBF00010EE5B1
:0709FA0077157770BC15763C
:100A010080B8AB6DAA6EA96F857382857283E4028B
:020A1100049C43
:101482008E5A8F5B8B5C8A5D895EC3E55A64809459
:10149200805005E4F55AF55BD3E55B9463E55A6445
:1014A2008094804006755A00755B63AE5AAF5B7CD0
:1014B200007D0A120525EF2430AB5CAA5DA95E12FD
:1014C200048AAE5AAF5B7C007D0A120525ED2430FA
:1014D200AB5CAA5DA95E90000112049C900002E43C
:0314E20002049C65
:101A3C00D2B5D2A47F301218DA7F0C1218DA7F01DB
:031A4C000218DAA3
:081547008D6B8B6C8A6D896EBF
:10154F00E4F570EF7008E56B2480F56F8021BF0123
:10155F0008E56B2490F56F8016BF0208E56B2488B1
:10156F00F56F800BEF6403702DE56B2498F56FAF6B
:10157F006F1218DAAB6CAA6DA96E85708275830035
:10158F0012045DFF6010E56BC3941050091218FA36
:06159F000570056B80DE03
:0115A5002223
:081873008F598D5AAF03AE023C
:10187B007B007A00795B7570007571021208267B0C
:0C188B00007A00795BAD5AAF5902154796
:081958008F558D56AF03AE025E
:101960007B007A0079571214827B007A007957AD98
:0619700056AF55021547B9
:100D5600E4F5557590FFC2932097137F14FE121A7F
:100D6600133097FD7F147E00121A137555012096D5
:100D7600147F147E00121A133096FD7F147E001223
:100D86001A137555052095147F147E00121A133018
:100D960095FD7F147E00121A137555092094147F51
:100DA600147E00121A133094FD7F147E00121A135B
:100DB60075550D7590FFC2922097147F147E001210
:100DC6001A133097FD7F147E00121A1375550220F0
:100DD60096147F147E00121A133096FD7F147E003F
:100DE600121A137555062095147F147E00121A13D5
:100DF6003095FD7F147E00121A1375550A2094143F
:100E06007F147E00121A133094FD7F147E00121A8E
:100E16001375550E7590FFC2912097147F147E00AE
:100E2600121A133097FD7F147E00121A137555039C
:100E36002096147F147E00121A133096FD7F147EBE
:100E460000121A137555072095147F147E00121A86
:100E5600133095FD7F147E00121A1375550B2094DE
:100E6600147F147E00121A133094FD7F147E001234
:100E76001A1375550F7590FFC2902097147F147E34
:100E860000121A133097FD7F147E00121A1375553F
:100E9600042096147F147E00121A133096FD7F14D8
:100EA6007E00121A137555082095147F147E0012C1
:100EB6001A133095FD7F147E00121A1375550C20F7
:100EC60094147F147E00121A133094FD7F147E0052
:080ED600121A13755510AF55F7
:010EDE0022F1
:0D1A73001219767FCC1219CD7F440219CDD7
:1017D7001219767FCC1219CD7FBE1219CD1219942A
:1017E7008F55121994EFFEE555FFFDAC06EC120379
:0B17F70081E4FBFA798078410202DFF8
:10197600C2AFD2B7C2B77FF7DFFED2B77F20DFFE96
:0D198600A2B7E433FE7FF7DFFED2AFAF065D
:011993002231
:1019FD00C2AFC2B77E04DEFEEF24FF92B77E18DEC3
:051A0D00FED2B7D2AFCC
:011A120022B1
:1019B100C2AFC2B77F02DFFED2B77F02DFFEA2B79E
:0B19C100E433FE7F18DFFED2AFAF065C
:0119CC0022F8
:0219CD00AD0764
:1019CF00E4FC7401A804088002C333D8FC5DFF1245
:0619DF0019FD0CBC08EC30
:0119E50022DF
:10199400E4FDFC1219B1EF600D7401A80408800283
:0C19A400C333D8FC42050CBC08E9AF05B9
:0119B0002214
:101A1300EF1FAC0670011E4C600A7D027CEFDCFEFA
:041A2300DDFC80EC7A
:011A2700229C
:051A9F00007FF7DFFEEF
:011AA400221F
:04189700AD07AC06E7
:10189B00E4FBFAED25E0FFEC33FEC3EB9FEA9E5031
:0D18AB000CB295121A9F0BBB00010A80E6DB
:0118B800220D
:101A4F0074BA2FFF74FF3EFEEF1FAC0670011E4CE1
:031A5F0070F622FC
:10191A008F55E555D3940340037555037F0A121674
:10192A00A8AF551216A8E4FF1216A87F0C0216A833
:101A62008F557F0A1216A8AF551216A87F0B0216C1
:011A7200A8CB
:1018B9008F557F0A1216A8E55575F00A84FF12168E
:1018C900A8E55575F00A84AFF01216A87F0B021629
:0118D900A866
:0216A800AD078C
:1016AA00C2AFD2907FE87E03121A4FC2907F987E13
:1016BA0008121A4FE4FBD290ED30E00F7FF47E015E
:1016CA00121A4FC2907FD27E00800D7FD27E001206
:1016DA001A4FC2907FF47E01121A4FEDC313FD0B0D
:0716EA00BB08D3D290D2AF80
:0116F10022D6
:1002DC00020430EC5D046005E85904700302042646
:1002EC001203F1580460F6EC4860F2EC7004FDFE69
:1002FC00FF22C860DB2481C85009C39860025006F5
:10030C0002042D9850CAF582E9294B4A7005AB823C
:10031C0002041C75F0007C1A7880C3EF9BEE9AEDFA
:10032C0099400DC3EF9BFFEE9AFEED99FDE842F06C
:10033C00DC23ACF0D0E0FFD0E0FED0E0FDAB8220BF
:10034C00E7101BEB60BAEC2CFCEF33FFEE33FEED49
:10035C0033FD020408E803F830E705C0F075F0003F
:10036C00EF2FFFEE33FEED33FD40B830E7C280AA2D
:10037C0075F020800E75F010800575F0087D007EFC
:10038C00007F003392D530D50312055BEC3340105F
:10039C00EF33FFEE33FEED33FDEC33FCD5F0ED2205
:0E03AC00E5F0247EA2D513CC92E7CDCEFF2241
:1003BA00EDD2E7CD33EC3392D524814006E4FFFE3B
:1003CA00FDFC22FCE4CFCECDCC24E0501174FF809A
:1003DA00EDC3CC13CCCD13CDCE13CECF13CF047037
:0703EA00F030D5DE02055BD7
:1003F100E9D2E7C933E833F892D5EDD2E7CD33EC52
:0704010033FC5002B2D522CA
:10040800EC30E7100FBF000C0EBE00080DBD000455
:100418000BEB6014A2D5EB13FCED92E7FD2274FF01
:10042800FCFDFEFF22E480F8A2D574FF13FC7D805A
:03043800E480EF6E
:0300000002138C5C
:0C138C00787FE4F6D8FD75817C0213D355
:10043B00C2D530F707B2D563F0FF05F030E70CB249
:10044B00D5F4048463F0FF05F080018430D502F409
:02045B00042279
:10045D00BB010CE58229F582E5833AF583E0225054
:10046D0006E92582F8E622BBFE06E92582F8E2229E
:0D047D00E58229F582E5833AF583E49322B8
:10048A00BB010689828A83F0225002F722BBFE0151
:02049A00F3224B
:10049C00F8BB010DE58229F582E5833AF583E8F096
:1004AC00225006E92582C8F622BBFE05E92582C842
:0204BC00F2222A
:1004BE00EF8DF0A4A8F0CF8CF0A428CE8DF0A42E52
:0204CE00FE220C
:1004D000BC000BBE0029EF8DF084FFADF022E4CC10
:1004E000F875F008EF2FFFEE33FEEC33FCEE9DECD9
:1004F000984005FCEE9DFE0FD5F0E9E4CEFD22ED1F
:10050000F8F5F0EE8420D21CFEADF075F008EF2F68
:10051000FFED33FD4007985006D5F0F222C398FD59
:050520000FD5F0EA22F6
:10052500C2D5EC30E709B2D5E4C39DFDE49CFCEEF1
:1005350030E715B2D5E4C39FFFE49EFE1204D0C395
:10054500E49DFDE49CFC80031204D030D507C3E490
:060555009FFFE49EFE2260
:0E055B00C3E49FFFE49EFEE49DFDE49CFC22B1
:10056900E8600FECC313FCED13FDEE13FEEF13FF70
:03057900D8F12294
:10057C00E493FC740193FD740293FE740393FF22C5
:10139800020A13E493A3F8E493A34003F68001F24E
:1013A80008DFF48029E493A3F85407240CC8C33356
:1013B800C4540F4420C8834004F456800146F6DF25
:1013C800E4800B0102040810204080901418E47E89
:1013D800019360BCA3FF543F30E509541FFEE4931A
:1013E800A360010ECF54C025E060A840B8E493A3E1
:1013F800FAE493A3F8E493A3C8C582C8CAC583CA0C
:10140800F0A3C8C582C8CAC583CADFE9DEE780BEC3
:01148100006A
:00000001FF
